:1000000080311B289A1408007E1480310B1F192898
:100010004E011A18101C102895310425803119281A
:10002000991A8F1E192842016F088A006E080A006B
:1000300080317E10090080311D28CB30840096303D
:1000400085004D30860002308700213093319E2399
:100050008031263084008B308500A030860002304D
:100060008700423093319E23803167308400943082
:10007000850058308600033087000D3093319E2371
:100080008031F001F101F201F301F401F5012030BA
:100090008400013085004130933198238031440140
:1000A000EE01E2308400023085000830933198235D
:1000B000803120308400033085003830933198231C
:1000C0008031A03084000330850040309331982384
:1000D0007E10400180316C2895312F25803193317D
:1000E0002F2380318B170B179431292480319331C2
:1000F00080238031003A0319772820308C317A240C
:10010000803101304001A0007030A100943174248E
:1001100080314001EC006C08031DAC280230A200C5
:100120007030A3009631EC26803123084401CA00C8
:10013000400122084401C90004304001A20070308F
:10014000A3009631EC26803123084401CC00400105
:1001500022084401CB00CA280230A4007030A50058
:1001600044014A084001A700440149084001A60093
:100170008731EC2780310430A4007030A5004401A1
:100180004C084001A70044014B084001A6008731FC
:10019000EC27803144014B084001A00044014C0889
:1001A0004001A100A201A30185317A2580314301DC
:1001B000A001A00AAB30A1000A30A2003430A30095
:1001C0000C30A4002030A50056304201E100093077
:1001D000E2001F30E3000930E4008430E50007301E
:1001E000E6005F30E7001530E800440149084001AF
:1001F000AC00A030AD006130AE00203088318920E5
:1002000080314101ED006D08031D05292930203E94
:10021000860002308700403F4101E900413FEA008B
:10022000423FEB00433FEC0044016E0803193029C4
:100230000130EE0220308F319E2780314101ED00E8
:100240006D0893310923803193316A238031E9307D
:100250004001A8002030A90020308331A423803140
:10026000440120183529A01C4929DF304001A30092
:100270000B30D53E860002308700413F8A00403F68
:100280000A00813124084401A600400123084401EA
:10029000A50020184D29201D57298D31E5258031D5
:1002A0002E084401A80040012D084401A700201891
:1002B0005B29A01D7F29013084315224803133080D
:1002C0004401AC00400132084401AB0001308431EC
:1002D000522480313208E9003308EA003408EB0088
:1002E0001030EB36EA0CE90C890B7129FF306905F7
:1002F0004401A900003040016A054401AA00201809
:100300008329201EA72900308431522480313308EC
:100310004401B000400132084401AF000030843194
:10032000522480313208E9003308EA003408EB0037
:100330001030EB36EA0CE90C890B9929FF3069057E
:100340004401AD00003040016A054401AE00203098
:100350004001A0000230A1000030A200A300013043
:10036000A4000030A50095314725803106294101C0
:10037000E80004304001B2000030B30041016808D9
:100380008831BA2081314101E70067080319CA2981
:1003900067080800680889318D21813121084101F1
:1003A000E100400120084101E000680889318D2109
:1003B000813121084101E600400120084101E500AA
:1003C00068088B31682381314101E7006708031D0C
:1003D000C8296808373E8600043087000108031DDD
:1003E000D22A650866040319FC29003066027E30B3
:1003F00003196502031C042A03304001C2004101B5
:10040000680896315026080065084001D90041016E
:1004100066084001DA00DB01DC01410160084001AF
:10042000DD00410161084001DE00DF01E0015D08FF
:10043000D9075E08DA3D5F08DB3D6008DC3D5C08FB
:10044000031D2A2A0130590200305A3B01305B3B20
:10045000031C322A02304001C20041016808963173
:10046000502608004001570858040319E12AA0301B
:100470008600003087004030D90000301E00D90BC4
:100480003E2A410161084001A1004101600840018C
:10049000A000410166084001A30041016508400138
:1004A000A200A030A40041016808323E860004305A
:1004B000870001084001A50041016808463E86000A
:1004C0000430870001084001A60058088A00570838
:1004D0000A0082314101E70067080319892A670889
:1004E000803A7F3E031C812A6708803A7B3E0318CE
:1004F000812A67084001C2004101680896315026F0
:10050000080004304001C2004101680896315026BD
:1005100008006808363E8600043087000108031D85
:10052000E12A6535E2006208013E4001A700003083
:1005300003180130A8004101680894311424813166
:10054000410162084001A000410168089531E125A0
:1005500081314101E301E40166086402031DB22A0E
:10056000650863020318C82A6335A03E8600870128
:10057000403F4001A000413FA10041016808973180
:100580008027813101304101E3070030E43DAC2A8E
:1005900068088931C52181314101E7006708031DE1
:1005A000C829E12A66084001C900410165084001E7
:1005B000C8000030CA00CB00410168088731052718
:1005C000080000300800D9000430B2000030B30049
:1005D00059088831BA208231D80058080319F22A04
:1005E00058080800590889318D2182312108D50029
:1005F0002008D400590889318D2182312108D70083
:100600002008D60059088B3168238231D800580859
:10061000031DF02A5908373E860004308700010880
:10062000031D962B59083C3E8600043087001600B7
:1006300001040319902B560857040319292B570A54
:1006400056040319292B0330C2005908963150264D
:1006500008005508A1005408A000560857040319C3
:10066000332B0130342B0030A2005908323E860073
:10067000043087000108A3005908463E8600043074
:1006800087000108A40059083C3E8600043087001A
:10069000413F8A00403F0A008331D80058080319BF
:1006A000672B5808803A7F3E031C612B5808803A1C
:1006B0007B3E0318612B5808C2005908963150261A
:1006C00008000430C2005908963150260800590825
:1006D000363E8600043087000108031DA22B04303B
:1006E000A7000030A800590894311424823155081D
:1006F000A1005408A000590897318027823157087B
:10070000A1005608A0005908973180278231590866
:100710008931C5218231D8005808031DF02AA22B47
:10072000C201C20A59089631502608005508C9006E
:100730005408C8005708CB005608CA0059088B3126
:10074000AB23080000300800AE00280886008701AF
:10075000403FAA00413FAB002E08293E86000230F0
:100760008700403FAC00413FAD002B082D06031D24
:10077000BB2B2A082C060319072C2E08293E8600BD
:1007800002308700403FAA00413FAB0001302B02FE
:10079000003003192A020318FA2B2E08293E86007E
:1007A00002308700160001040319FA2B2908473E7E
:1007B0008600043087002E08293E84000230850020
:1007C000000881000230A4007030A5002E08293EE8
:1007D000860002308700403FA600413FA7008731D6
:1007E000EC2783310130A0007030A100A2019631C6
:1007F000AA2608002808860087012E08293E8400C2
:1008000002308500403F803F413F813F080028087B
:10081000023E86008701403FAA00413FAB002E0800
:100820002B3E860002308700403FAC00413FAD00C8
:100830002B082D06031D1E2C2A082C060319080060
:100840002E082B3E860002308700403FAA00413F21
:10085000AB002A08A0002B08A100A201A30185314A
:100860007A258331003A0319442C40012808023EBE
:10087000860087012E082B3E840002308500403F11
:10088000803F413F813F080004304001A4007030A8
:10089000A5002E082B3E860002308700403FA600B0
:1008A000413FEE2B4001BC000030B8000030B900E1
:1008B0000030BA00FD30AD00F4309431BC248431F6
:1008C000BD01BE010130BD070030BE3D07303E0214
:1008D000D03003193D02031C622C3C08031D722C0E
:1008E000FA30762C3C03031D772CF730BB00BF0198
:1008F0003B083F07953192258431B5003F08383ECB
:1009000086008701350881000130B5003508BF0732
:1009100003303F02031C782C3808B500B601B7013C
:100920003508C0003608C1003708C2004008B500CD
:100930004108B6004208B7000830B535B60DB70D0E
:10094000890B9D2C3508C0003608C1003708C2004D
:100950003908B500B601B7013508C0073608C13DF2
:100960003708C23D4008B5004108B6004208B7004C
:100970000830B535B60DB70D890BB92C3508C00058
:100980003608C1003708C2003A08B500B601B70101
:100990003508C0073608C13D3708C23D4008B500DC
:1009A0004108B6004208B7000430B736B60CB50CA3
:1009B000890BD52C3508C0003608C1003708C200A5
:1009C0004008B2004108B3004208B4000800C70064
:1009D0004708343E860004308700403FC000413F56
:1009E000C1004708323E8600043087000108C2007B
:1009F0004708333E8600043087000108C4004330B6
:100A0000B60047088D3108258431C6004608031911
:100A10000B2D460808004708413E86000430870039
:100A200002300106031D272D4708343E860004309E
:100A30008700403FBE00413FBF0041083F06031D05
:100A4000232D40083E060319272DFA3008004708D9
:100A5000413E8600043087000103031D3A2D4708FC
:100A6000323E8600043087000108420603193A2D01
:100A7000F93008004708333E86000430870001083B
:100A800044060319782D4708333E8600043087005A
:100A90000108803EBE00FF3003180030BF0044084C
:100AA0003E063F04031D742D0130B2000030B30038
:100AB00047088831BA208431C6004608031D092D35
:100AC00047089531FC258431C50047088B316823E0
:100AD0008431C6004608031D092D45080319742DED
:100AE00005304502031C762DFE300800450808003D
:100AF0000030080042019E121D12BC2D4030420100
:100B00009B0003309C00DE3044018D00CC30B52DBD
:100B1000CF3042019B009C01F73044018D00B3307F
:100B2000B52D673042019B009C01FB3044018D00D4
:100B3000E630B52D003042019C0033309B00FD3083
:100B400044018D00F330B52D193042019B009C010A
:100B5000FE3044018D00ED30B52D0C3042019B007C
:100B60009C01FF3044018D006A308C00F92D420158
:100B70009E161D160130080040012308003A031993
:100B8000F42DB72D2108013A0319D62D053A031982
:100B9000DB2D0D3A0319E02D1B3A0319E52D373AE9
:100BA0000319EA2D6E3A0319EF2DB72D20082C3AC0
:100BB00003197E2DB72D2008B03A0319882DB72DC3
:100BC0002008603A0319912DB72D2008C03A031967
:100BD0009A2DB72D2008803A0319A42DB72D20088F
:100BE000003A0319AD2DB72D2208003A0319C22D82
:100BF000B72D42019E161D1600300800A0002008E7
:100C000086000230870044014D08C03F4E08C13FB6
:100C100040012008023E86000230870044014F0850
:100C2000C03F5008C13F40012008043E860002300A
:100C3000870044015108C03F5208C13F40012008CD
:100C4000063E86000230870044015308C03F540826
:100C5000C13F40012008083E860002308700440161
:100C60005508C03F5608C13F400120080A3E860093
:100C70000230870044015708C03F5808C13F400177
:100C800020080C3E86000230870044015908C03F0E
:100C90005A08C13F400120080E3E860002308700FE
:100CA00044015B08C03F5C08C13F40012008103E82
:100CB00086000230870044015D08C03F5E08C13FE6
:100CC00040012008123E86000230870044015F0880
:100CD000C03F6008C13F40012008143E860002303A
:100CE000870044016108C03F6208C13F40012008FD
:100CF000163E86000230870044016308C03F640846
:100D0000C13F0800D5000430B2000030B3005508E0
:100D10008831BA208631D000550889318D2186313D
:100D20002108D2002008D100550889318D21863153
:100D30002108D4002008D30055088B316823863160
:100D4000D0005508373E8600043087000108031D97
:100D5000F72E55083E3E8600043087001600010439
:100D60000319032F5208A1005108A0005408A30042
:100D70005308A2005508323E86000430870001085F
:100D8000A4005508463E8600043087000108A500EF
:100D900055083E3E860004308700413F8A00403FB0
:100DA0000A0086315508363E860004308700010867
:100DB000031D032F0430A7000030A800550894310C
:100DC000142486315208A1005108A000550897311B
:100DD000802786315408A1005308A0005508973198
:100DE0008027863155088931C5218631032F520865
:100DF000C9005108C8005408CB005308CA00550860
:100E000096316D260800003008004001D5005508D5
:100E10008431E7248731D60056080319112F56086C
:100E200008000130B2000030B30055088831BA2004
:100E30008731D6005608031D0F2F55089531FC2524
:100E40008731D4005408CC00CD014C08B2004D08C5
:100E5000B30055088831BA208731D6005608031DE3
:100E60000F2FD201D3015408CC000130CC36890BAE
:100E7000362F5308803ACD0080304D02031D422F9B
:100E80004C0852020318662F4001550889318D2104
:100E900087312108D1002008D0004A084B040319EB
:100EA000612F5308CD005208CC00CC35CD0D4C0835
:100EB0004A0786004D084B3D87005008C03F510847
:100EC000C13F0130D2070030D33D332F40015508D8
:100ED0008B3168238731D6005608031D0F2F490830
:100EE000CD004808CC00CC35CD0D5408CE00CF0144
:100EF0004D084F06031D7E2F4C084E060319822F06
:100F0000FE300800003008000030210206300319CE
:100F10002002031C8D2F023008002408AD00220897
:100F2000031DB52F2108A6002008A500A636A50C94
:100F3000A636A50CA636A50C25082D07A700270860
:100F40008600023087000130A80020080739890A8E
:100F5000AA2FA835890BA92F2808FF3A0105A90057
:100F6000AA012908AB002A08D62F0130A5000030BD
:100F7000A60020080739890ABF2FA535A60D890BC1
:100F8000BD2F2108A8002008A700A836A70CA83666
:100F9000A70CA836A70C27082D07A900290886004A
:100FA0000230870025080104AB002608AC002108A8
:100FB000A6002008A500A636A50CA636A50CA636C8
:100FC000A50C25082D07A7002708860002308700FA
:100FD0002B088100003008002508A1002408A0008B
:100FE0002608A2009631AA2687312408013EA000D7
:100FF0000030253DA1002708A2009631AA2608004E
:1010000005300800A100210894310A242108323E4D
:1010100086000430870081012108333E86000430B9
:10102000870081012108343E8600043087000030AB
:10103000C03FC13F2108363E860004308700810151
:101040002108373E860004308700810108004201F4
:10105000C215342893314A23080093312C230330DE
:10106000080093314E2308002D084001A1004201E1
:101070002C084001A000420121088A0020080A0033
:1010800088314001A000A1012108003A0319492834
:1010900031282008013A03193128033A03192A2874
:1010A000013A03192A28073A03192D283128080084
:1010B0004E019912EB304001A0000830A10093319D
:1010C000CB23883108309F0090309D0024309E0053
:1010D00019309B009C0108304001A0001330A10092
:1010E0009331BB23883132304001A0001330A1007E
:1010F0009331C323883114304001A0001330A10084
:101100009331B323F001F301F201F1014E0199167D
:101110000800B1002D088600013087000103031D7F
:1011200096282C08031D9628FF3008002D08A800DB
:1011300031088D3151258831B00030080319A228BB
:10114000300808003108473E8600043087002C082C
:1011500081002E088600013087003108383E840067
:10116000043085000930AF0016001A00AF0BB42818
:10117000003008004001B5003508303E86000430DC
:10118000870035080107A1003308A3003208A20038
:101190000030A7000030A6002730A5000F30A400C3
:1011A0003508463E8600043087000108A80035084F
:1011B000423E860004308700413F8A00403F0A00DB
:1011C00088312108B40032083406031DE9280030B4
:1011D0000800FC3008007308433E86000130870099
:1011E00081011D1DFE287308433E860001308700E3
:1011F00081146D088A006C080A00883142019D1C28
:101200000D297308433E8600013087000115430114
:1012100029088A0028080A0089317308433E86009D
:1012200001308700010803191C29430127088A009F
:1012300026080A00893108008A3135220800220870
:101240002007A7002308213DA80000302802153000
:1012500003192702031C2E29023008002608013E2C
:10126000AA00AB01AC0123082C02031D3929220876
:101270002B02031854292B352A07A70020352707EE
:10128000A80028088600023087002B352407A90013
:10129000290884008501403F803F413F813F013064
:1012A000AB070030AC3D332900300800220820078E
:1012B000A7002308213DA8000030280204300319AC
:1012C0002702031C6529023008002608293EAA00CF
:1012D000AB01AC0123082C02031D702922082B024C
:1012E00003188B292B352A07A70020352707A800CC
:1012F00028088600023087002B352407A90029081A
:1013000084008501403F803F413F813F0130AB0772
:101310000030AC3D6A29003008004001AB002B08CA
:10132000303E86000430870001082B07A200220A05
:101330008600043087000108A300A4012B08303E7A
:1013400086000430870001082B07A50025088600C9
:10135000043087000108A600A7012608A700A601FF
:1013600023082604A90024082704AA002B08303EDD
:101370008600043087000230810741310318810A5A
:101380002A08A1002908A00008004001C100410866
:10139000413E8600043087000103031DEE29410809
:1013A000303E860004308700403FBC00413FBD0016
:1013B0003C08A0003D08A100A201A30141088E3114
:1013C000E02689312108BF002008BE003F08A100A7
:1013D0003E08A00041089731802789314108303EFE
:1013E000860004308700403FB000413FB100410813
:1013F0008F313E27C00040080800E500182A650824
:10140000943182248931082A6508943190248931E5
:101410004001132A65088231E3228931132A6508C5
:10142000863182268931E400332AE401E40A332A32
:101430006508333E8600043087000108E200E301BE
:101440006308003A0319252A152A6208033A03198A
:10145000FF29073A0319042A013A03190A2A033A11
:1014600003190F2A152A6408080073084B3E8600EA
:10147000013087004201190881000130F800780826
:10148000F10708307106031D4F2A0130F800780873
:101490004401EE07F101933111238A315B2A710374
:1014A000031D5B2A0030F600F70094319E248A3138
:1014B00093310B238A31F401F5017308F800F90127
:1014C0007808FA007908FB007308013E0739F30039
:1014D00073087206031D08007A08F3000800A000D4
:1014E000A101A10A42014219A82A40012008420193
:1014F000BC00C210421542100E30C000F430BA00D9
:101500000130BB00C2150F30A0001330A100AC01A8
:10151000AD010F30A2001330A300AE01AF010F30B8
:10152000A4001330A500B001B1010F30A6001330A4
:10153000A700B201B3010030A8000830A900B4012F
:10154000B501933117238A3194311E244001A10142
:101550004001210808000030B1000030B000003028
:10156000AF000030AE002208A9002308AA00AB019A
:10157000AC0131082C06031DC72A30082B06031DB9
:10158000C72A2F082A06031DC72A2E082906031971
:10159000DF2A94314D248A31AD002E082107A9009D
:1015A00029088600043087002D0881000130AE072D
:1015B0000030AF3D0030B03D0030B13DB32A3108BE
:1015C000A4003008A3002F08A2002E08A1000800E4
:1015D000BC003A08B6003C088D3108258A31BB00B2
:1015E0003B080319F52A3B0808003C08413E8600E9
:1015F000043087000103031D242B3C08323E860083
:10160000043087000108031D082B3C08363E182BC8
:101610003C08473E8600043087003C08323E840088
:10162000043085000008010603191E2B3C08373ED4
:101630008600043087008101810A242B3C08373E54
:1016400086000430870081010030080050344134A6
:1016500030343034373430343034373400340034BC
:1016600000340034003448345534303430343234AB
:10167000303430343234003400341334DF34143432
:101680004C343E3400340034003400340034003430
:101690000034003400344C343E3400340034003420
:1016A0000034003400344C343E3400340034003410
:1016B0000034003400345434453430343034313460
:1016C000303430343134003400341334DF341434E3
:1016D0004001BD003D08413E860004308700010303
:1016E000031DA92B3D08303E860004308700403F93
:1016F000B600413FB7003608A0003708A100A2019C
:10170000A3013D088E31E0268B312108B900200865
:10171000B8000230B2000030B3003D088831BA2072
:101720008B31BC003C080319972B3C0808003D088E
:1017300089318D218B312108BB002008BA0039087E
:101740003B06031DA52B38083A060319A92BFB30CD
:10175000080000300800D00050088431E7248B31A5
:10176000D10051080319B62B510808000430B2000B
:101770000030B30050088831BA208B31D1005108B5
:10178000031DB42B500889318D218B312108CD00E8
:101790002008CC00500889318D218B312108CF00E1
:1017A0002008CE0050088B3168238B31D1005108BE
:1017B000031DB42B49084D06031DE02B48084C06B9
:1017C0000319E42BFE3008004B084F06031DEA2BDB
:1017D0004A084E06031DE22B0030080042013D0876
:1017E00086008701933129238B318100013040012C
:1017F000A00020084201BD070130BE020030BF3BFF
:101800003E083F040319082C93313E23053008009D
:10181000C215102C93315A23080093315623080027
:101820002D084001A10042012C084001A000420106
:1018300021088A0020080A008C314001A000A10183
:101840002108003A0319252C0D2C2008013A031910
:101850000D2C033A03190A2C013A03190A2C073AF2
:1018600003190D2C0D2C0800803102208C31003022
:10187000AD000030AC000030AB000030AA00AE017B
:10188000AF0123082F02031D472C22082E02031844
:101890006F2C94315A248C31003A03196A2C210898
:1018A00086000430870001089331ED238C31933199
:1018B00072238C31003A0319572C01304001A900E2
:1018C0002908A1070130AA070030AB3D0030AC3D2C
:1018D0000030AD3D0130AE070030AF3D412C9331BB
:1018E0002F232D08A4002C08A3002B08A2002A08EF
:1018F000A10008004001B5003508293E86000230ED
:1019000087000330C03F0030C13F35082B3E8600C2
:10191000023087008030C03F2530C13F3508A0002D
:101920000230A1000030A200A3000130A40000306A
:10193000A500953147258C313508013EA0000230C5
:10194000A1000030A200A3002830A4000030A500B0
:10195000953147258C313508033E860002308700DB
:101960000130C03F0030C13F350A86000230870099
:10197000C830C03F0030C13F3508113E9631332694
:1019800008002B0886008701403FAD00413FAE00B4
:101990002D0884002E0885001200253A031DEE2C28
:1019A0002B08860087010130810741310318810A25
:1019B0004201DA01DB010310003003180130E000BE
:1019C000FF30DC00FF30DD0040012B08860087017E
:1019D0000130810741310318810A08002B08860075
:1019E0008701403FAD00413FAE002D0884002E0826
:1019F00085000008AF00B0012F08A0003008A1004A
:101A00002A08A3002908A2008E318B268C31E42CF1
:101A1000B9003908883102208D31360886008701E7
:101A200081013908413E8600043087000103031D0F
:101A30004F2D0130B2000030B30039088831BA2090
:101A40008D31B80038080319272D380808003608EA
:101A5000860087018101810A39089531FC258D3185
:101A6000B7003908323E860004308700370881000D
:101A70000130B2000030B30039088831BA208D310E
:101A8000B8003808031D252D39089531FC25B7000D
:101A90003908333E86000430870037088100003063
:101AA0000800AB002B080319662D682D2808860056
:101AB0000130870002300106031D662D280A8600CA
:101AC0000130870016000104031D812DFF3008003E
:101AD0002B08A0000430A1000030A200A3004B306E
:101AE000A4000030A500953147258D312808031941
:101AF000662D28088600013087000103031D562D3E
:101B00005E2D2808033E8600013087001600010480
:101B10000319662D28088600013087002B08413EF6
:101B20008400043085000630A90016001A00A90BB5
:101B3000952D00300800A600260894310A248D3126
:101B40002608413E86000430870001030319CF2D8B
:101B50002608413E86000430870002300106031D3E
:101B6000DA2D2608343E860004308700403FA0006E
:101B7000413FA1002608973180278D310030A00019
:101B8000A1002608973180278D312408023EA0004D
:101B90000030253DA1002608973180278D31260889
:101BA000323E8600043087000108A00026089531E7
:101BB000E1258D312608333E860004308700010878
:101BC000A00026089531E125080035304001B60017
:101BD0001730B7003630B8003808A9000230AA0024
:101BE0000030AB00703097310F278D315C30B6007C
:101BF0002430B7003630B8003808A9000230AA00F7
:101C00000030AB00703097310F278D313430B80081
:101C10003808A7000230A8000030A90070309531C4
:101C200078258D31B030B6009830B7003630B80026
:101C30003808A9000230AA000030AB00703097319C
:101C40000F273408AF00B0012F08B000AF012F08F4
:101C5000B2003008B3003508AF00B0012F08B2075A
:101C60003008B33D3308AE003208AD0008009331B0
:101C70008C238E31003A031D472E6F2E9331422361
:101C8000080093314623080093314E230800420197
:101C900033084001A100420132084001A000063093
:101CA000203E860001308700413F8A00403F0A0005
:101CB0008E314001A100A2012208003A0319612ED1
:101CC000442E2108013A0319442E033A03193E2EEB
:101CD000013A0319412E073A0319442E442E4201BA
:101CE00042101D30203E860001308700403F8400B6
:101CF0008501810A0008933186238E31013042012B
:101D0000BE020030BF3B3E083F04031D892E063053
:101D1000080003300800220823040319932E220828
:101D20002304031D972E200893310A23080022085C
:101D30008600230887004931160001040319BE2ECE
:101D400022088600230887004931403FA400413F14
:101D5000A50022088600230887004231403FA600E4
:101D6000413FA7002708803AA8002508803A2802AA
:101D7000031DBC2E24082602031808004001220877
:101D8000860023088700423122088400230885004A
:101D9000403F0007A4000131413F003DA500240859
:101DA0008600250887002008810022088600230875
:101DB000870042310130810741310318810A080050
:101DC000A800FF30AF00FF30B0000030AC000030A2
:101DD000AB000030AA000030A90023082C02031D2C
:101DE000FB2E22082B02031DFB2E21082A02031DB5
:101DF000FB2E200829020318312F29082807A400E8
:101E000024088600043087000108A500A6012508E3
:101E1000AF062608B0060830AD000030AE002F1C1B
:101E20001B2F0130B036AF0C890B122F0130AF06DB
:101E3000A030B006202F0130B036AF0C890B1C2F1C
:101E4000FF30AD07FF30AE3D2D082E04031D0F2FD0
:101E50000130A9070030AA3D0030AB3D0030AC3D59
:101E6000ED2E3008A400A5012F08A700A601240824
:101E70002604A00025082704A1000800BB003B0899
:101E8000A1003108A3003008A2000030A7000030F4
:101E9000A6000330A500E830A4003B08463E8600BB
:101EA000043087000108A8003B08443E8600043047
:101EB0008700413F8A00403F0A008F312408BA0062
:101EC0002308B9002208B8002108B7003008B20082
:101ED0003108B300B401B5013A083506031D7A2F65
:101EE00039083406031D7A2F38083306031D7A2F6C
:101EF00037083206031D7E2F003008003008B2007C
:101F00003108B300B401B5013A08803AB60035088B
:101F1000803A3602031D962F34083902031D962F8E
:101F200033083802031D962F3208370203189A2F00
:101F3000BA1F9C2FFC300800FD3008004001E7006C
:101F40006708883102208F31E6016630BA006708E1
:101F50008A31E8228F31E80068080319BA2F660831
:101F6000031DB82FFD306806031DB82F0030080090
:101F70006808080067088931FD218F31E80068088A
:101F80000319B62F6808803A7F3E031CCC2F6808DF
:101F9000803A7B3E031CB62F6708413E8600043022
:101FA00087000103031DB82FFD3068060319B82F01
:101FB0006708373E86000430870001080319B82FF0
:101FC0006708A1003030A2000030A3000030A70055
:101FD0000030A6000030A5000030A4006708463E8F
:101FE0008600043087000108A8006708423E86008A
:101FF00004308700413F8A00403F0A008F31B82FEC
:102610000800080008000E14080019100800013016
:10262000080044010E1008008A31352208004E01CE
:102630000F10080043019012080043011114080014
:10264000430191140800430111150800430191153D
:10265000080043010C0808004E010F140800400157
:102660009A10080042011D121D160800F301F20124
:10267000F10108004301911611160800430191125F
:1026800011160800933120230130080093312023D4
:1026900002300800933120230130080093312323B6
:1026A0000030080093313E230530080093313A236F
:1026B0000A30080093313A23093008004E010F1800
:1026C00008005E2B00309631172608008230520138
:1026D0008C000800F301F201F1010800013096318D
:1026E0001726080042011E0C013908004201C210E1
:1026F000C1010E3008004201C210C1010E300800B5
:1027000052010C0E890C890C013908004001A0000F
:10271000200843018C0008004301110E890C890C2C
:102720000139080042014210933126230430080089
:10273000640080010131890B992B0034FE001200E6
:102740001E00FE0B9F2B0034420142143C35933196
:102750008623033008004201421403143C0D9331D8
:1027600086230530080021084301A7004001200806
:102770004301A600080021084201ED0040012008A5
:102780004201EC00080021084301A9004001200893
:102790004301A800080021084201EF004001200881
:1027A0004201EE00080021084201EB004001200830
:1027B0004201EA00080043018F01083090009101B6
:1027C00003308D0090120800623051018D008F019E
:1027D00091010230930092010800A0004E010F1EEB
:1027E000EE2B4001200842019A0008004201C21C61
:1027F000080093315E239331973133279331F62BC1
:102800004F0196019701980199019A019B019C0142
:102810009D010800A0002008303E8600043087009B
:102820000030C03FC13F08004001A9002808A500B2
:102830002708A40029088D319B2508004301901A20
:1028400008008F0108309000910103308D00901630
:102850000800AD01F5309431BC249431FC30AD005A
:10286000F4309431BC2408002608A1002508A000FB
:102870002808A3002708A20002309731A9270800E2
:1028800074080319482C9331362394319331112362
:102890000130F4004E011010080072084B3E860013
:1028A000013087000108A0007208013E0739F200DC
:1028B00020080800A0014E010F1E642C42019E1E3C
:1028C000642C4001A001A00A4001200808005434F3
:1028D00045343034303438343034303438340034E3
:1028E0000034003400340034210850019B004001C2
:1028F000200850019A001E171E140000000050010D
:102900001C080800E1006108383E8600043087009A
:10291000403FD700413FD80061088131B72108000E
:10292000E10061083A3E860004308700403FD7004E
:10293000413FD80061088131B721080044010E1DD4
:10294000A82C0E1077088D0076088C000E14080055
:1029500077088D0076088C0008003B304001BB00F2
:102960000030B100B2003A08B4003908B3003B307F
:10297000B5009531AC250800AE002E08B0002D083A
:10298000B1003030AF002F08A9000230AA0000309B
:10299000AB00763097310F270800A2004201C21D1C
:1029A0000800400122084201BD0040012108420107
:1029B000BF00400120084201BE00C21108002308E8
:1029C0008600023087000108A70027089431F1240F
:1029D0002108A6002008A5002608A4002508A300B9
:1029E0000800A200220841019F0042019117111323
:1029F00011141118F92C41011E084001A1004101D8
:102A00001D084001A0000800101042015F08F700F7
:102A10005E08F60094319E24953142016A086B04E9
:102A2000031908006B088A006A080A00953108003B
:102A3000A001A00A4201C2182C2D4211FF30BC0097
:102A400093311723953193310D23953193311A2307
:102A5000420141084001A0004001200808009431D3
:102A6000002495319331DB239531973158279531E7
:102A70009331E42395319331662395319531C62501
:102A8000953188315820953196318A2608002108E1
:102A9000A7002008A6000130A4020030A53B240AAC
:102AA0000319250A0319080026088600270887004D
:102AB000220881000130A6070030A73D4B2D0030D1
:102AC0002102043003192002031C682D0230080083
:102AD0002508293EA70020352707A60026088600DE
:102AE000023087002208C03F2308C13F00300800A1
:102AF000AA002A088A316F229531003A0319792DEC
:102B00002908A1002808A00027089431CD24953178
:102B100093316E239531953118259531013A031D76
:102B200008008B2DAF003030AD002F30AE002E08E6
:102B3000A9000130AA000030AB00763097310F2792
:102B400095312D08A7000130A8000030A90076308B
:102B500095317825300808003408B8003308B700EC
:102B6000370884003808850012000319C32D320885
:102B7000AA003108A9003730AB003508AC008C3111
:102B8000C1249531B02DB101B201080041018C0181
:102B90008D018E018F019201930198019A019F018D
:102BA00042018C018D018E018F0190019201023052
:102BB000930094019501960197019801843091004A
:102BC00008004001A2002208303E86000430870041
:102BD00001082207A1002108860004308700200890
:102BE00081002208303E86000430870001308107D2
:102BF00041310318810A0800A2002208303E8600F5
:102C00000430870001082207A00020088600043055
:102C100087000108A1002208303E860004308700AA
:102C20000130810741310318810A21080800400161
:102C3000A500A601A60A4201C218302EC214400106
:102C4000A60125080319282E4201C001C00A2B2E17
:102C500002304201C00093311D2396319331F62397
:102C6000400126080800B2008830B300B4013308E0
:102C70003407953192259631B10034084D3E8600D7
:102C800002308700310881000130B1003108B407FB
:102C90001A303402031C372E32088531FE25080015
:102CA0004001C4008030C3004408333E8600043035
:102CB0008700430881070130A4000030A5004408C4
:102CC0008D319B2596314208A00044089531E125BD
:102CD000963144088931C5210800CD004D08843162
:102CE000E7249631CC000430B2000030B3004D0828
:102CF0008831BA209631CC004D0889318D2196312A
:102D00004D0889318D2196314D088B316823CC00D7
:102D10000030080044018F01900101309100FE3025
:102D20008D00ED308C004E01101044010D08420161
:102D3000DF0044010C084201DE004E011A1440304D
:102D40004001A0001430A1009331D323013044018D
:102D50008E00080000308B1B0130A30021085001B9
:102D60009B004001200850019A00400122085001B8
:102D70009C001E171E158B1355309F00AA309F0014
:102D80009E149E18C12E1E114001230C031C8B1390
:102D900003188B1708003034313432343334343470
:102DA00035343634373438343934413442344334AA
:102DB0004434453446344734483449344A344B3437
:102DC0004C344D344E344F3450344C343E345434FF
:102DD00045343034303431342308A1002208A000B7
:102DE0009431742496314001A9002208013EA000CC
:102DF0000030233DA100943174244001AA00290829
:102E0000A400A5012A08A600A7012608A700A6017C
:102E100024082604A20025082704A3000800AC000B
:102E20002C088A316F229731003A0319102F2B0892
:102E3000A1002A08A00029089431CD249731003040
:102E40004001A500A6000030A700A800943134245A
:102E50009731933162239731953118259731013A93
:102E6000031D08002C2F9331172397314201421C78
:102E7000422F93318C239731003A0319422F0F30A0
:102E80004201C000420140084001A300A401A33553
:102E9000A40D2630230784001830243D8038850097
:102EA000013F8A00003F0A0097314201C00008003C
:102EB000400198019A013F309200393094000E3061
:102EC0007E01CE003730B800B901CF01BA01D00180
:102ED0003730BB003F30D1003F30BC003F30D20024
:102EE00015307D01C50014307E01A4000F30A20012
:102EF0001330A50014307D01C6001030CB0008004F
:102F00004001A3002308303E8600043087000108FA
:102F10002307A200220886000430870021088100D0
:102F20002308303E86000430870001082307A200F2
:102F3000220A860004308700200881002308303EE2
:102F40008600043087000230810741310318810A6E
:102F50000800A400200821040319C12F2435203EB5
:102F60008600013087002008C03F2108C13F24357A
:102F70002C3E8600013087002208C03F2308C13F55
:102F800008002435203E8600013087000F30C03F06
:102F90001330C13F24352C3E8600013087000030BD
:102FA000C03FC13F0800420142100230C100DE2F85
:102FB00093314A23080093314E2308003108400121
:102FC000A100420130084001A0000430203E8600EC
:102FD00001308700413F8A00403F0A00973140019D
:102FE000A000A1012108003A0319F72FDB2F2008C8
:102FF000023A0319D82F013A0319D82FDB2F080002
:103000004534723472346F347234203465346E3423
:1030100020346C3461342034633472346534613468
:10302000633469346F346E3420346434653420344E
:103030006C346134203469346E34733474346134E4
:103040006E346334693461340A34003476341334B2
:10305000AB341334A434133437340E34EE340B341D
:10306000923413342734083442341334463413343E
:103070004A3413344E341334523413345634133424
:103080005A3413347B341334D334173400340034BB
:0230900000340A
:020000040001F9
:08000000FF3FFF3FFF3FFF3F00
:0A000E00EC3FFF3F9F3FFF3FFF3F25
:00000001FF
