:1000000080313028053008007E1480314E01961A68
:100010008C1E0E288A31232280312E280B1F2E2879
:1000200018180E1C17288931E72180312E289A19BB
:10003000901D1E288931B72180312E289A18901CD6
:1000400025288931AB2180312E28991A8F1E2E2820
:10005000400169088A0068080A0080317E100900A2
:1000600080313228043084008A3085005330860085
:10007000003087000F308931632180314B3084009C
:100080008B308500C5308600003087001A308931FA
:10009000632180314D3084008F3085002030860010
:1000A000013087003B308931632180311230840078
:1000B0008F308500A0308600013087003B308931C9
:1000C00063218031D73084008E3085002030860057
:1000D000023087003B30893163218031F801F9011A
:1000E000EA01EB01EC01A0308400003085002530EE
:1000F00089315D218031A03084000230850040309C
:1001000089315D218031203084000330850040300A
:1001100089315D217E1040018231072A4001CF00E4
:10012000D8294A08AE004908AD008F31C42708001D
:100130004A08C1004908C000833164230800490807
:10014000233E860000304A3D87000108CB00CC01E9
:10015000CB35CC0D4B084907CD004C084A3DCE00AD
:100160004D0886004E0887004D31403FB400413FA6
:10017000B5008D31CC25803149083A3E86000030EB
:100180004A3D87000108CB00CC01CB35CC0D4B0894
:100190004907CD004C084A3DCE004D08243E86005C
:1001A00000304E3D8700403FB400413FB5008D31E7
:1001B000CC25080049080D3EF40000304A3DF5000A
:1001C00086318C2680314908243EF40000304A3DB7
:1001D000F50086318C268031490886004A08870060
:1001E0005D31403FB400413FB5008D31CC258031B9
:1001F0004908343E860000304A3D8700403FB40045
:10020000413FB5008D31CC25080049080D3EF40072
:1002100000304A3DF5008631362680314908243EBB
:10022000F40000304A3DF500863136268031490819
:1002300086004A0887005F31403FB400413FB50067
:100240008D31CC2580314908363E860000304A3D4C
:100250008700403FB400413FB5008D31CC250800F8
:1002600049080D3EAE0000304A3DAF008531D7252C
:1002700080314908243EAE0000304A3DAF00853150
:10028000D72580314908213E860000304A3D87004D
:10029000403FB400413FB5008D31CC258031490845
:1002A000383E860000304A3D8700403FB400413F61
:1002B000B5008D31CC25080049080D3EC000003046
:1002C0004A3DC1008D31122580314908243EC000CD
:1002D00000304A3DC1008D311225080048088A319E
:1002E000E6228031CB004B08A400480885317225F6
:1002F00080312508F7002408F60089314B210800D9
:10030000DE010800DE01DE0A0800480886008701D9
:100310000108CB00CC014C08003A03199029062AA9
:100320004B08303A03198029013A03198229062A19
:1003300048088A31E6228031CB004B08A4004808E7
:10034000853172252508DB002408DA0008004808FA
:100350008A31E6228031CB004B08A4004808853161
:1003600072252508DD002408DC0008005B08B500C4
:100370005A08B4008D31CC2580315D08B5005C0889
:10038000B4008D31CC2580315E08CB00CC014B0808
:10039000B4004C08B5008D31CC2580315F08CB000E
:1003A000CC014B08B4004C08B5008D31CC250800B9
:1003B0004F08CB00CC014C08003A0319E029062A6B
:1003C0004B08423A03198529013A03199829073A3B
:1003D00003199F28013A0319B6290D3A03195C291C
:1003E000013A03199128043A0319DA281D3A03192E
:1003F0003029033A03199828073A03196E293D3A20
:100400000319A729043A03190529062A0800C5304B
:10041000860000308700DF308400003085000B301C
:10042000D00016001A00D00B112A8B319D23823187
:100430008831B5208231981418149A118B170B1734
:10044000630040016B080319942A0130EB0200306D
:10045000A3000030A2000030A1000B30A000DF306C
:100460008C31942482310B30D0005008A000DF3052
:100470008C311F248231A530A0000130A10003304F
:10048000A2000030A300E1308731CD27823120085F
:100490002104031D582AE530D0005008C800A030C0
:1004A000C9000130CA004101640880318E208231C8
:1004B00025304001A0000130A1000330A20000302F
:1004C000A300E1308731CD27823120082104031DAC
:1004D000762AE530D0005008C8002030C90001302D
:1004E000CA004101640880318E20823125304001EC
:1004F000A0000230A1000330A2000030A300E130D0
:100500008731CD27823120082104031D942AE5304C
:10051000D0005008C8002030C9000230CA00410194
:10052000640880318E208231400161080319C32A9A
:10053000A030C0000130C1008331642382312030FB
:10054000C0000130C1008331642382312030C000FB
:100550000230C100833164238231A030BE000130FB
:10056000BF008E31662682312030BE000130BF00D0
:100570008E31662682312030BE000230BF008E31BF
:1005800066268231E1015F0858060319D12A5F0807
:100590000319CC2A9814CD2A98105F08D00050086F
:1005A000D800600859060319DF2A60080319DA2AFF
:1005B0001810DB2A18146008D0005008D9005E0813
:1005C00057060319FA2A5E080319ED2A8831AF206D
:1005D000823188319F208231F52A8831B2208231E0
:1005E0008831A12082314001981240015E08D0007C
:1005F0005008D70042014208803A4001D0008D30B7
:100600005002031D062B303042014102031C222BF5
:1006100042015A35443E860001308700403F400188
:10062000D000413FD1005D08803AD2005108803AA5
:100630005202031D1D2B50085C020318312B400190
:10064000DF01312B40015B0842014202031D2C2BCC
:1006500040015A08420141020318312B4001DF01D9
:10066000DF0A420143352D3E860001308700403FBE
:100670004001D000413FD1005108803AD2008A3079
:100680005202031D452BBF305002031C4A2B400170
:10069000E001202A420143352D3E860001308700CB
:1006A000403F4001D000413FD1005108803AD20084
:1006B00089305202031D5E2BC43050020318202AD9
:1006C0004001E001E00A202A181604304001C2006F
:1006D0003D30890B692BC20B692B00324001400869
:1006E0008600410887004931403FB500413FB600D0
:1006F000400886004108870048310108C2004208CE
:10070000B70000308B3180238331400140088600E0
:10071000410887004B31403FB500413FB6004008DB
:1007200086004108870048310108C2004208B7002E
:1007300005308B3180238331400140088600410819
:10074000870048310108C2004208B50002308F31ED
:10075000882783313608C7003508C6004708C3001C
:100760004608C200430DC30CC20C430DC30CC20C9F
:10077000430DC30CC20C4208C6004308C700FF303B
:10078000C6051F30C7050130C2004008233E860061
:100790000030413D8700420881074008233E860023
:1007A0000030413D870008300106031DF02B400852
:1007B000233E86000030413D8700810140088600CD
:1007C000410887005D310030C03F8030C13F4008A4
:1007D0008600410887005F31FF30C03F7F30C13F56
:1007E0004008233E86000030413D87000108C200DA
:1007F000C301C235C30D42084007C4004308413D50
:10080000C50044088600450887004D314608C03FB2
:100810004708C13F40088600410887004831010869
:10082000C2004208B50001308F3188278331360875
:10083000C7003508C6000130C20040083A3E8600B5
:100840000030413D87004208810740083A3E86005B
:100850000030413D870008300106031D4A2C400846
:100860003A3E86000030413D870081014008343E19
:1008700086000030413D87000030C03F8030C13FDE
:100880004008363E86000030413D8700FF30C03FC3
:100890007F30C13F40083A3E86000030413D87002E
:1008A0000108C200C301C235C30D42084007C4009D
:1008B0004308413DC5004408243E86000030453DC4
:1008C00087004608C03F4708C13F18120800103093
:1008D000B2002730B3002808B1002708B000AB01F0
:1008E0002708280403197A2C270A031D822C280ABA
:1008F000031D822C3030AA002908860087012A08AF
:1009000081000800A81F932C2D30AA00290886001A
:1009100087012A0881002709B0002809B1000130A9
:10092000AA002A08A907AE01AF0140013308A100BF
:100930003208A0003108A3003008A2008D31FC2548
:1009400084312108AD002008AC002D08803AAA00AF
:1009500080302A02031DAE2C01302C020318B42C67
:1009600040012B03031DC32C40012C08303EAA007C
:100970002908860087012A0881000130AA002A0878
:10098000A907AB01AB0A3308A1003208A000310867
:10099000A3003008A2008C31E62484312108B10084
:1009A0002008B0000A30A0000030A1003308A300E6
:1009B0003208A2008D31FC2584312108B3002008C3
:1009C000B2000130AE070030AF3D2F08803AAA00D8
:1009D00080302A02031DEE2C05302E020318080079
:1009E000952CA901A31F012DA009A109A209A30902
:1009F000A00A0319A10A0319A20A0319A30AA9014B
:100A0000A90AA71F122DA409A509A609A709A40AC6
:100A10000319A50A0319A60A0319A70A0130F4004D
:100A20007408A9060030AD000030AC000030AB0007
:100A30000030AA00230822042104200403195B2D9E
:100A4000A801A80AA31B302D0130A035A10DA20DCD
:100A5000A30D890B252D0130F4007408A807222D61
:100A60000130AA35AB0DAC0DAD0D890B312D23082E
:100A70002702031D452D22082602031D452D2108AE
:100A80002502031D452D20082402031C502D20089B
:100A9000A4022108A53B2208A63B2308A73B2A1451
:100AA0000130A336A20CA10CA00C890B512D0130F2
:100AB000A802031D302D29080319692DAA09AB09C5
:100AC000AC09AD09AA0A0319AB0A0319AC0A031948
:100AD000AD0A2D08A3002C08A2002B08A1002A08AB
:100AE000A0000800AC00AA01AB010130A800003052
:100AF000A900A701A70A2C08860087012D3001064E
:100B0000031D842DA701A7032C082407A60026088F
:100B1000AC0024080319C32D0130AC020130A4023B
:100B20002C088600870130300102031C892D2C0817
:100B3000860087013A3001020318892D2C088600AF
:100B400087010108D03EA000FF3003180030A1004B
:100B50002908A3002808A2008B31652385312008CD
:100B6000AA072108AB3D0A30A0000030A1002908E7
:100B7000A3002808A2008B31652385312108A90034
:100B80002008A800892D2708A000A101A01BA1030F
:100B90002B08A3002A08A2008B3165232108AB0093
:100BA0002008AA002B08A5002A08A400080000308D
:100BB000BB000030BA000030B9000030B8002E0889
:100BC00086002F08870056310108B0003008BD00AC
:100BD000BC013D08B000B101B035B10D30082E07A1
:100BE000860031082F3D8700403FB200413FB300EF
:100BF0003208B4003308B5000030B51BFF30B60032
:100C0000B7003408B8073508B93D3608BA3D37088B
:100C1000BB3D3D08031D102E0830B0003008BD005C
:100C20000130BD020130B0003008BC0708303C0282
:100C3000031CE92D0030A3000030A2000030A10009
:100C40000830A0003B08A7003A08A6003908A50014
:100C50003808A4008431F1242E0886002F0887006C
:100C600054312008C03F2108C13F080074088600A5
:100C70007508870056310108A0002008A800A701C8
:100C800074088600750887005231403FA000413F3C
:100C9000A1002808A200A301A235A30D2208740711
:100CA00086002308753D8700403FA400413FA50012
:100CB0002508803AA6002108803A2602031D622EEC
:100CC000200824020318792E40012808A000A10161
:100CD000A035A10D2008740786002108753D870006
:100CE00074088400750885001231403F803F413F01
:100CF000813F40012808031D812E0830A0002008F4
:100D0000A8000130A8020130A0002008A707083081
:100D1000270203180800402E740886007508870013
:100D200056310108A0002008A800A7012808A0004B
:100D3000A101A035A10D2008740786002108753D8A
:100D40008700403FA200413FA30074088600750859
:100D500087005031403FA400413FA5002508803A5C
:100D6000A6002308803A2602031DB82E220824027A
:100D70000318CF2E40012808A000A101A035A10D25
:100D80002008740786002108753D870074088400D8
:100D9000750885001031403F803F413F813F400151
:100DA0002808031DD72E0830A0002008A800013015
:100DB000A8020130A0002008A70708302702031866
:100DC0000800962EAC008831A3208631AA01AB0121
:100DD0002A08A6002B08A7000030A71BFF30A80098
:100DE000A90025082902031DFF2E24082802031D3F
:100DF000FF2E23082702031DFF2E220826020318B8
:100E0000212F8931A0218631003A03191B2F40017F
:100E10002C0886008701010889318C2186318831B0
:100E2000D4208631003A03190F2F40019A11013066
:100E3000A6002608AC0701304001AA070030AB3DF0
:100E4000E82E8931A0218631003A0319332F0A3068
:100E500089318C2186318831D4208631003A0319BA
:100E60002B2F40019A118831B5200800893151217A
:100E70008731003A031D462F6B2F8831E020080090
:100E80008831E42008008831EC20080041012F0857
:100E90004001A8002808A7000630A03E8600870170
:100EA000413F8A00403F0A0087314001A900AA0162
:100EB0002A08003A03195D2F432F2908013A031924
:100EC000432F033A03193D2F013A0319402F073AE4
:100ED0000319432F432F41013C101730A03E8600D9
:100EE0008701403F84008501810A00088931122171
:100EF000873101304101B8020030B93B380839046C
:100F0000031D842F06300800033008008831CA20F2
:100F100087314001A8004101370886008701400160
:100F2000280881000130A80028084101B7070130D6
:100F3000B8020030B93B380839040319A32F8831AF
:100F4000DC2005300800BC15AB2F8831F8200800E4
:100F50008831F42008002C084001A8002808A700C8
:100F6000410121088A0020080A0087314001A900B8
:100F7000AA012A08003A0319BE2FA82F2908013A0E
:100F80000319A82F033A0319A52F013A0319A52F16
:100F9000073A0319A82FA82F0800A600A401A5014D
:100FA000A401A5012508803AF4002308803A7402C0
:100FB000031DDC2F220824020318FC2F4001200807
:100FC00086002108870026088400850100080106A4
:100FD0000319EF2FFF30A000FF30A10008000130FF
:100FE000F4007408A6070130A0070030A13D0130CD
:100FF000A4070030A53DD22F4001A001A1010800A7
:1011360098120800981608008E1708008E130800EB
:101146009A15080019100800013008008E31302663
:101156000800E101E10A080045019417080045016D
:101166009413080040019A1108004E010F10080060
:101176004301901208004301111408004301911421
:1011860008004301111508004301911508004301A9
:101196000C0808004E010F14080042011D121D160E
:1011A600080042011E0C0139080043019116111670
:1011B600080043019112111608008831C120013040
:1011C60008008831C120023008008831C120013072
:1011D60008008831C420003008008831DC20053042
:1011E60008008831D8200A3008008831D820093014
:1011F60008004E010F180800FC2801308B31BB2374
:10120600080000308B31BB2308007508EB0074081A
:10121600EA0008007508ED007408EC000800F40008
:10122600740843018C0008004101BC10BB010E305C
:1012360008004101BC10BB010E3008005301100E1E
:10124600890C890C01390800803052018E00183053
:101256008F00080075084101EF007408EE000800D1
:1012660075084001E9007408E800080075084001A7
:10127600E3007408E200080075084001E7007408FE
:10128600E600080075084001E5007408E40008005F
:1012960077084B019D0076089C0008004301110E5B
:1012A600890C890C0139080041013C108831C7209E
:1012B60004300800640080010131890B5E29003486
:1012C600FE0012001E00FE0B6429003441013C148E
:1012D6003635893112210330080041013C140314CC
:1012E600360D8931122105300800803043018F0008
:1012F60028309000910104308D0090120800603073
:1013060051018D008F0191019301920180308C0073
:101316000800F40040019A154E010F1E8F2974082B
:1013260042019A0008004101BC1C08008831FC20DB
:1013360089318C31BC2489319629F4014E010F1E66
:10134600A92942019E1EA929F401F40A740808007D
:1013560090104001660867040319080067088A00B0
:1013660066080A0089310800901140016408650486
:101376000319080065088A0064080A008931080014
:101386002408A1002308A0002508A6002608A2001C
:1013960000308B31FB2308004301901A080080308F
:1013A6008F0028309000910104308D0090160800BF
:1013B6002408A1002308A0002508A6002608A200EC
:1013C60002308B31FB2308000E108931212189312F
:1013D600003A0319F2294001DE01DE0A0800400145
:1013E600DE0108004E0118108030530190000330D2
:1013F600910002309200053093004E010E10181431
:10140600080035340C340C34FE3400340134003416
:1014160035340C340C34FE340034013400340134D9
:10142600A1004101BC1D080040012108A0002008C0
:101436004101B7007508B9007408B800BC1108006E
:101446008C1277084B019D0076089C0040016208CB
:1014560063040319080063088A0062080A008A31D7
:10146600080047304F0196006A3097008030980098
:10147600253099006F309A0060309B009C013F3008
:101486009D0008000230F4000030F50040012708F6
:101496008A3113228A3100304001A300A400A5013D
:1014A6008931C321043008000130F4000030F50012
:1014B600400127088A3113228A3100304001A300F7
:1014C600A400A5018931C321023008000230F400CE
:1014D6000030F500400127088A3113228A31003096
:1014E6004001A300A400A5018931C32102300800F0
:1014F6000130F4000030F500400127088A3113223C
:101506008A3100304001A300A400A5018931C3211E
:1015160004300800043045019600950197017830A3
:10152600930092014E0190119A159D30F4000830F7
:10153600F500893145217930450194000800790884
:1015460078060319A22A7808A03E86000230870092
:101556000108F4007408F5007808013E3F39F400EC
:101566007408F80075080800043045019000113031
:101576008F00023091002F308D008C014E019010AB
:101586009A149B30F4000830F50089313F21603011
:1015960045018E00080048304B019F00FF309D003A
:1015A600CD309C001D08F7001C08F6004E018C1279
:1015B6009616AC30F4000830F500893139219030A8
:1015C6004B019E0008004001A000A101A1012008D6
:1015D600860087010108031DF22A21080800013050
:1015E600F4007408A0070130F4007408A107210A6A
:1015F600031DEA2AFF300800F501F50A4101BC186F
:10160600162B3C11FF30F4007408B6008831B82060
:101616008A318831A5208A318831BB2041013B08B7
:10162600F4007408F50075080800400127088600D4
:101636008701403FF400413FF5002708023E86003F
:10164600870101088A3113228B3100304001A30043
:10165600A400A5018931C32102300800B400340872
:101666008E319C268B31003A0319322B3308F50054
:101676003208F40031088A3113228B318931002176
:101686008B318A31FF228B31013A031D0800442B2E
:101696000034003400340034003400343034303444
:1016A6003034303430344C343E340034003400347A
:1016B6000034003400344C343E3445345034313434
:1016C60030343034F401F501201C6D2B2208F40768
:1016D6002308F53D0130A235A30D890B6E2B013091
:1016E600A136A00C890B732B20082104031D672B40
:1016F6007508A1007408A0000800B9003908B800F0
:101706003808BB003508B8003808BC003608B800F1
:101716003808BD003B30B8003808BA003A08B800AF
:101726003808B1000330B2000030B30037088B31FF
:10173600D92308008A3134228B31893178218B31C3
:101746008C316C248B31893182218B318931F521A1
:101756008B318A318D228B31893127218B318A3128
:10176600B7228B318A31CE228B318D316E2508001E
:101776004001AF00B001B00A4101BC18D62BBC1421
:101786004001B0012F080319CC2B4101BA01BA0A56
:10179600D12B0230AE002E084101BA008831BE209E
:1017A6008B3189319621400130080800B400340895
:1017B6008E319C268B31003A0319DA2B3308F5005B
:1017C6003208F40031088A3113228B31003040018F
:1017D600A300A400A5018931DB218B3189310421C5
:1017E6008B318A31FF228B31013A031D0800F42B1D
:1017F600F500200821040319112C7535A03E86003A
:1018060087012008C03F2108C13F2208F40075085F
:10181600AC3E860087017408810008007535A03E3D
:1018260086008701A730C03F0830C13F7508AC3E2F
:101836008600870181010800A300A5018A31A22242
:101846008C31A1002108A40025082002031C392C94
:101856002408A10025082307A20022088600870184
:10186600210881000130A1002108A5070A302406BD
:10187600031D212C25082307A100210886008701C6
:10188600810108007908203E860003308700810127
:1018960042019D1C5A2C7908203E860003308700A1
:1018A600011541016D088A006C080A008C3179081F
:1018B600203E86000330870001080319692C410188
:1018C6006B088A006A080A008C3108008E313026BF
:1018D6000800400198019A010C30920027309400CC
:1018E60004307E01CE000430B800B901CF01BA0140
:1018F600D0013730BB003F30D1003F30BC003F3015
:10190600D2001330A00010307D01C50014307E01D6
:10191600A1000F30A40011307D01C6001530CB00A8
:101926000800A800A901AA012908A4002A08A50000
:101936000030A51BFF30A600A70023082702031DC1
:10194600AE2C22082602031DAE2C21082502031DFB
:10195600AE2C200824020318080029082807A40032
:1019660024088600870181010130A9070030AA3DBD
:10197600972C8831B8208C3141013C1CCE2C893102
:1019860051218C31003A0319CE2C0F304001AB00A7
:101996002B084101BA0041013A084001AB00AC01F5
:1019A600AB35AC0D00302B07840090302C3D850004
:1019B600013F8A00003F0A008C314001AD002D082E
:1019C6004101BA0008002008210403190D2DF50174
:1019D600F50AA11BF82C0130A035A10D890BEF2CBF
:1019E6000130F4007408F507EC2C21082302031DCE
:1019F600FE2C20082202031C042D2008A202210826
:101A0600A33B0130A136A00C890B052D0130F50250
:101A1600031DF82C2308A1002208A0000800400896
:101A260086004108870056310108C2004208C500F9
:101A3600C4014508C200C301C235C30D42084007B0
:101A460086004308413D8700403FB400413FB50052
:101A56008D31CC258D314508031D352D0830C2004A
:101A66004208C5000130C5020130C2004208C40761
:101A760008304402031808001C2D41013C100230B6
:101A86004001A80028084101BB004F2D8831E820FD
:101A960008008831EC2008002E084001A80028081C
:101AA600A7000430A03E86008701413F8A00403FE0
:101AB6000A008D314001A900AA012A08003A03193B
:101AC600652D4C2D2908023A0319492D013A0319AF
:101AD600492D4C2D08004E0199124530F4000C306A
:101AE600F500893133218D310A3042019F00903053
:101AF6009D0024309E0019309B009C010030F400AC
:101B06000030F50089312D218D31D030F4000830B8
:101B1600F50089310D218D31A930F4000830F5002A
:101B2600893108214001EA01F901F801EC014E0171
:101B3600991608004101BC15AA2D8831E820080035
:101B46008831CD20033008008831EC2008002C08AD
:101B56004001A8002808A700410121088A002008A2
:101B66000A008D314001A900AA012A08003A03198A
:101B7600BD2DA72D2908013A0319A72D033A0319EC
:101B8600A02D013A0319A02D073A0319A32DA72D5D
:101B96000800D030860000308700383084000030DE
:101BA60085000830B60016001A00B60BD62D35088B
:101BB600A8003408A7003A30B6003608A9008431D8
:101BC60067248D313A308A31E6228D31023EB600E5
:101BD600003003180130B7003608A2003708A3000A
:101BE600890D893B8909A400A50038308631E22693
:101BF6000800A501A6012008210403192B2EA40123
:101C0600A40AA11B102E0130A035A10D890B072EA9
:101C16000130F4007408A407042E0130A535A60D82
:101C2600890B112E21082302031D1B2E20082202D8
:101C3600031C222E2008A2022108A33B25140130F2
:101C4600A136A00C890B232E0130A402031D102EF1
:101C56002608A1002508A000080042011908F00086
:101C66007908A03E86000230870070088100790856
:101C7600A03E860002308700010803190800790893
:101C8600A03E8600023087000A300106031D502E52
:101C96000130F00070084001EB077908F000F1010F
:101CA6007008F2007108F3007908013E3F39F00030
:101CB6007008F90079087806031D08007208F0001C
:101CC6007008F90008003E08243EF40000303F3D4D
:101CD600F50086318C268E313E08243EF400003015
:101CE6003F3DF500863136268E313E08243EAE0055
:101CF60000303F3DAF008531D7258E313E080D3E81
:101D0600F40000303F3DF50086318C268E313E08CA
:101D16000D3EF40000303F3DF500863136268E310B
:101D26003E080D3EAE0000303F3DAF008531D72561
:101D36000800A000A101A10A41013C19D42E4001CE
:101D46002008F40074084101B600BC103C153C1094
:101D56000E30F4007408BA00F430B4000130B50057
:101D6600BC15A730A0000830A100AC01A730A20026
:101D76000830A300AD01A730A4000830A500AE01CD
:101D8600A730A6000830A700AF010230A800003037
:101D9600A900B0018831B8208E318931CF214001A8
:101DA600A101400121080800453443343134303460
:101DB6003234313430343234423443341C343634E1
:101DC6001A34003400340034003400340034003453
:101DD600003400340034003400340034003400345D
:101DE600003400340034FF347F34003400340034CF
:101DF600003400340034003400340034003400343D
:101E0600003400340034003400340034003400342C
:101E160000340034FF347F34003400340034453459
:101E2600503431343034303431343034303440345A
:101E360043343C3436341A3400340034003400342D
:101E460000340034003400340034003400340034EC
:101E5600003400340034003400340034FF347F345E
:101E660000340034003400340034003400340034CC
:101E760000340034003400340034003400340034BC
:101E860000340034003400340034FF347F3400342E
:101E96000034003445344234313430343134313452
:101EA60030343134413443341C3436341A3400343B
:101EB600003400340034003400340034003400347C
:101EC600003400340034003400340034003400346C
:101ED6000034FF347F3400340034003400340034DE
:101EE600003400340034003400340034003400344C
:101EF600003400340034003400340034003400343C
:101F0600FF347F34003400340034BD003B30B7006A
:101F16003708B9003D30B7003708BA003A08B700AD
:101F26003708B1000130B2000030B30035088B31FC
:101F3600D9238F3140013908B7003708B100023084
:101F4600B2000030B30035088B31312340013B0825
:101F5600B700B8013708BE003808BF003E08B80011
:101F6600B7013708BE003808BF003C083E07BE0070
:101F76003F0803183F0ABF003F08B6003E08B500F9
:101F86000800D8308600003087002F3084000030EB
:101F960085000730F50016001A00F50BCE2FB601A6
:101FA600B701400136082D07860037082E3D870009
:101FB6000108F5003608023E2F3E860087017508A7
:101FC60081000130B6070030B73D3708803AF5008A
:101FD60080307502031DF12F05303602031CD42F05
:101FE60000304001A5000030A4000030A3000730F7
:101FF600A2002F308631E2260800173409347034E7
:10200600093469340934363407348634073457348E
:1020160009349D340D34E0340834E4340834E834AB
:102026000834EC340834F0340834F4340834F83422
:0A20360008341C34093440340D3422
:020000040001F9
:08000000FF3FFF3FFF3FFF3F00
:0A000E00EC3FFF3FEA3FFF3FFF3FDA
:00000001FF
